{
  "contractName": "Hipogame",
  "abi": [
    {
      "inputs": [],
      "stateMutability": "nonpayable",
      "type": "constructor"
    },
    {
      "inputs": [
        {
          "internalType": "address",
          "name": "",
          "type": "address"
        }
      ],
      "name": "balances",
      "outputs": [
        {
          "internalType": "uint256",
          "name": "",
          "type": "uint256"
        }
      ],
      "stateMutability": "view",
      "type": "function"
    },
    {
      "inputs": [],
      "name": "curRoom",
      "outputs": [
        {
          "internalType": "address",
          "name": "",
          "type": "address"
        }
      ],
      "stateMutability": "view",
      "type": "function"
    },
    {
      "inputs": [
        {
          "internalType": "address",
          "name": "",
          "type": "address"
        }
      ],
      "name": "gameLists",
      "outputs": [
        {
          "internalType": "address",
          "name": "first",
          "type": "address"
        },
        {
          "internalType": "address",
          "name": "second",
          "type": "address"
        },
        {
          "internalType": "bool",
          "name": "status",
          "type": "bool"
        }
      ],
      "stateMutability": "view",
      "type": "function"
    },
    {
      "inputs": [
        {
          "internalType": "address",
          "name": "",
          "type": "address"
        }
      ],
      "name": "keyMaps",
      "outputs": [
        {
          "internalType": "string",
          "name": "",
          "type": "string"
        }
      ],
      "stateMutability": "view",
      "type": "function"
    },
    {
      "inputs": [],
      "name": "owner",
      "outputs": [
        {
          "internalType": "address",
          "name": "",
          "type": "address"
        }
      ],
      "stateMutability": "view",
      "type": "function"
    },
    {
      "inputs": [],
      "name": "playingRoom",
      "outputs": [
        {
          "internalType": "address",
          "name": "",
          "type": "address"
        }
      ],
      "stateMutability": "view",
      "type": "function"
    },
    {
      "inputs": [],
      "name": "roomprice",
      "outputs": [
        {
          "internalType": "uint256",
          "name": "",
          "type": "uint256"
        }
      ],
      "stateMutability": "view",
      "type": "function"
    },
    {
      "inputs": [
        {
          "internalType": "string",
          "name": "a",
          "type": "string"
        },
        {
          "internalType": "string",
          "name": "b",
          "type": "string"
        }
      ],
      "name": "compareStringsbyBytes",
      "outputs": [
        {
          "internalType": "bool",
          "name": "",
          "type": "bool"
        }
      ],
      "stateMutability": "pure",
      "type": "function"
    },
    {
      "inputs": [
        {
          "internalType": "address",
          "name": "_address",
          "type": "address"
        },
        {
          "internalType": "string",
          "name": "_key",
          "type": "string"
        }
      ],
      "name": "checkUser",
      "outputs": [
        {
          "internalType": "bool",
          "name": "",
          "type": "bool"
        }
      ],
      "stateMutability": "view",
      "type": "function"
    },
    {
      "inputs": [
        {
          "internalType": "string",
          "name": "_key",
          "type": "string"
        }
      ],
      "name": "postKey",
      "outputs": [],
      "stateMutability": "nonpayable",
      "type": "function"
    },
    {
      "inputs": [],
      "name": "checkIfPosted",
      "outputs": [
        {
          "internalType": "bool",
          "name": "",
          "type": "bool"
        }
      ],
      "stateMutability": "view",
      "type": "function"
    },
    {
      "inputs": [],
      "name": "addFund",
      "outputs": [],
      "stateMutability": "payable",
      "type": "function"
    },
    {
      "inputs": [
        {
          "internalType": "uint256",
          "name": "_amount",
          "type": "uint256"
        }
      ],
      "name": "withdraw",
      "outputs": [],
      "stateMutability": "nonpayable",
      "type": "function"
    },
    {
      "inputs": [],
      "name": "createRoom",
      "outputs": [],
      "stateMutability": "nonpayable",
      "type": "function"
    },
    {
      "inputs": [
        {
          "internalType": "address",
          "name": "_room",
          "type": "address"
        }
      ],
      "name": "joinRoom",
      "outputs": [],
      "stateMutability": "nonpayable",
      "type": "function"
    },
    {
      "inputs": [
        {
          "internalType": "address",
          "name": "_room",
          "type": "address"
        },
        {
          "internalType": "address",
          "name": "_winner",
          "type": "address"
        }
      ],
      "name": "gameOver",
      "outputs": [],
      "stateMutability": "nonpayable",
      "type": "function"
    },
    {
      "inputs": [],
      "name": "claim",
      "outputs": [],
      "stateMutability": "nonpayable",
      "type": "function"
    }
  ],
  "bytecode": "0x6080604052655af3107a400060065534801561001a57600080fd5b50600580546001600160a01b031916331790556110418061003c6000396000f3fe6080604052600436106100fe5760003560e01c806370a9d50911610095578063a9e9d68c11610064578063a9e9d68c146102f7578063b758343714610317578063cce5298514610337578063e9a734ff1461034c578063f9f9fa641461036c57600080fd5b806370a9d5091461028c5780638da5cb5b146102a257806391794a0d146102c2578063a2f09dfa146102ef57600080fd5b80633be272aa116100d15780633be272aa146102125780634bcc02dc146102275780634e71d92d1461024757806353ee88f51461025c57600080fd5b8063068ea0281461010357806308d2ed741461017d57806327e235e3146101b55780632e1a7d4d146101f0575b600080fd5b34801561010f57600080fd5b5061015061011e366004610d28565b600060208190529081526040902080546001909101546001600160a01b0391821691811690600160a01b900460ff1683565b604080516001600160a01b0394851681529390921660208401521515908201526060015b60405180910390f35b34801561018957600080fd5b5060035461019d906001600160a01b031681565b6040516001600160a01b039091168152602001610174565b3480156101c157600080fd5b506101e26101d0366004610d28565b60016020526000908152604090205481565b604051908152602001610174565b3480156101fc57600080fd5b5061021061020b366004610e59565b61038c565b005b34801561021e57600080fd5b5061021061043a565b34801561023357600080fd5b50610210610242366004610d49565b61053b565b34801561025357600080fd5b506102106106d0565b34801561026857600080fd5b5061027c610277366004610d7b565b610769565b6040519015158152602001610174565b34801561029857600080fd5b506101e260065481565b3480156102ae57600080fd5b5060055461019d906001600160a01b031681565b3480156102ce57600080fd5b506102e26102dd366004610d28565b610859565b6040516101749190610e8d565b6102106108f3565b34801561030357600080fd5b50610210610312366004610dc7565b610919565b34801561032357600080fd5b5060045461019d906001600160a01b031681565b34801561034357600080fd5b5061027c610a14565b34801561035857600080fd5b5061027c610367366004610e02565b610a44565b34801561037857600080fd5b50610210610387366004610d28565b610a9d565b33600090815260016020526040902054818110156103e45760405162461bcd60e51b815260206004820152601060248201526f3a37b79036bab1b41030b6b7bab73a1760811b60448201526064015b60405180910390fd5b3360009081526001602052604081208054849290610403908490610f5d565b9091555050604051339083156108fc029084906000818181858888f19350505050158015610435573d6000803e3d6000fd5b505050565b6006543360009081526001602052604090205410156104955760405162461bcd60e51b815260206004820152601760248201527621b0b713ba1031b932b0ba32903a3434b9903937b7b69760491b60448201526064016103db565b60065433600090815260016020526040812080549091906104b7908490610f5d565b90915550506040805160608101825233808252600060208084018281528486018381528484529183905294909120925183546001600160a01b039182166001600160a01b03199182161785559451600194909401805492511515600160a01b026001600160a81b031990931694909116939093171790915560038054909216179055565b6005546001600160a01b031633146105655760405162461bcd60e51b81526004016103db90610ec0565b6001600160a01b0382166000908152602081905260409020600190810154600160a01b900460ff161515146105d35760405162461bcd60e51b815260206004820152601460248201527347616d65206973206e6f7420737461727465642160601b60448201526064016103db565b6001600160a01b038281166000908152602081905260409020548116908216148061061d57506001600160a01b038281166000908152602081905260409020600101548116908216145b6106695760405162461bcd60e51b815260206004820152601860248201527f77696e6e657220616464726573732069732077726f6e6721000000000000000060448201526064016103db565b6064600654600261067a9190610f3e565b61068590605f610f3e565b61068f9190610f1e565b6001600160a01b038216600090815260016020526040812080549091906106b7908490610f06565b9091555050600480546001600160a01b03191690555050565b6005546001600160a01b0316331461073a5760405162461bcd60e51b815260206004820152602760248201527f546869732066756e6374696f6e20697320616c6c6f776564206279206f6e6c79604482015266206f776e65722160c81b60648201526084016103db565b60405133904780156108fc02916000818181858888f19350505050158015610766573d6000803e3d6000fd5b50565b6005546000906001600160a01b031633146107965760405162461bcd60e51b81526004016103db90610ec0565b6001600160a01b0383166000908152600260205260409020805461084291906107be90610fa4565b80601f01602080910402602001604051908101604052809291908181526020018280546107ea90610fa4565b80156108375780601f1061080c57610100808354040283529160200191610837565b820191906000526020600020905b81548152906001019060200180831161081a57829003601f168201915b505050505083610a44565b1561084f57506001610853565b5060005b92915050565b6002602052600090815260409020805461087290610fa4565b80601f016020809104026020016040519081016040528092919081815260200182805461089e90610fa4565b80156108eb5780601f106108c0576101008083540402835291602001916108eb565b820191906000526020600020905b8154815290600101906020018083116108ce57829003601f168201915b505050505081565b3360009081526001602052604081208054349290610912908490610f06565b9091555050565b33600090815260026020526040902080546109cb919061093890610fa4565b80601f016020809104026020016040519081016040528092919081815260200182805461096490610fa4565b80156109b15780601f10610986576101008083540402835291602001916109b1565b820191906000526020600020905b81548152906001019060200180831161099457829003601f168201915b505050505060405180602001604052806000815250610a44565b156109f45733600090815260026020908152604090912082516109f092840190610bec565b5050565b33600090815260026020908152604090912082516109f092840190610bec565b3360009081526002602052604081208054610a33919061093890610fa4565b15610a3e5750600090565b50600190565b600081604051602001610a579190610e71565b6040516020818303038152906040528051906020012083604051602001610a7e9190610e71565b6040516020818303038152906040528051906020012014905092915050565b600654336000908152600160205260409020541015610af85760405162461bcd60e51b815260206004820152601760248201527621b0b713ba1031b932b0ba32903a3434b9903937b7b69760491b60448201526064016103db565b6006543360009081526001602052604081208054909190610b1a908490610f5d565b90915550506001600160a01b038116600090815260208190526040902060010154600160a01b900460ff1615610b925760405162461bcd60e51b815260206004820152601860248201527f47616d6520697320616c7265616479207374617274656421000000000000000060448201526064016103db565b6001600160a01b03166000818152602081905260409020600101805460ff60a01b1933166001600160a81b031990911617600160a01b179055600380546001600160a01b0319908116909155600480549091169091179055565b828054610bf890610fa4565b90600052602060002090601f016020900481019282610c1a5760008555610c60565b82601f10610c3357805160ff1916838001178555610c60565b82800160010185558215610c60579182015b82811115610c60578251825591602001919060010190610c45565b50610c6c929150610c70565b5090565b5b80821115610c6c5760008155600101610c71565b80356001600160a01b0381168114610c9c57600080fd5b919050565b600082601f830112610cb1578081fd5b813567ffffffffffffffff80821115610ccc57610ccc610ff5565b604051601f8301601f19908116603f01168101908282118183101715610cf457610cf4610ff5565b81604052838152866020858801011115610d0c578485fd5b8360208701602083013792830160200193909352509392505050565b600060208284031215610d39578081fd5b610d4282610c85565b9392505050565b60008060408385031215610d5b578081fd5b610d6483610c85565b9150610d7260208401610c85565b90509250929050565b60008060408385031215610d8d578182fd5b610d9683610c85565b9150602083013567ffffffffffffffff811115610db1578182fd5b610dbd85828601610ca1565b9150509250929050565b600060208284031215610dd8578081fd5b813567ffffffffffffffff811115610dee578182fd5b610dfa84828501610ca1565b949350505050565b60008060408385031215610e14578182fd5b823567ffffffffffffffff80821115610e2b578384fd5b610e3786838701610ca1565b93506020850135915080821115610e4c578283fd5b50610dbd85828601610ca1565b600060208284031215610e6a578081fd5b5035919050565b60008251610e83818460208701610f74565b9190910192915050565b6020815260008251806020840152610eac816040850160208701610f74565b601f01601f19169190910160400192915050565b60208082526026908201527f546869732067616d6520697320636f6e74726f6c6c6564206279206f6e6c79206040820152656f776e65722160d01b606082015260800190565b60008219821115610f1957610f19610fdf565b500190565b600082610f3957634e487b7160e01b81526012600452602481fd5b500490565b6000816000190483118215151615610f5857610f58610fdf565b500290565b600082821015610f6f57610f6f610fdf565b500390565b60005b83811015610f8f578181015183820152602001610f77565b83811115610f9e576000848401525b50505050565b600181811c90821680610fb857607f821691505b60208210811415610fd957634e487b7160e01b600052602260045260246000fd5b50919050565b634e487b7160e01b600052601160045260246000fd5b634e487b7160e01b600052604160045260246000fdfea264697066735822122074677715996ee9875ce842e2e6910ad549b78875606940ce8f727ba59a87fd9364736f6c63430008040033",
  "immutableReferences": {},
  "source": "// SPDX-License-Identifier: MIT\r\npragma solidity ^0.8.4;\r\n\r\ncontract Hipogame {\r\n    mapping(address => Twice) public gameLists;\r\n    mapping(address => uint256) public balances;\r\n    mapping(address => string) public keyMaps;\r\n    address public curRoom;\r\n    address public playingRoom;\r\n    address public owner;\r\n    uint256 public roomprice = 0.0001 ether;\r\n    \r\n    struct Twice {\r\n        address first;\r\n        address second;\r\n        bool status;\r\n    }\r\n\r\n    constructor() {\r\n        owner = msg.sender;\r\n    }\r\n\r\n    function compareStringsbyBytes(string memory a, string memory b) public pure returns(bool){\r\n        return keccak256(abi.encodePacked(a)) == keccak256(abi.encodePacked(b));\r\n    }\r\n\r\n    function checkUser(address _address, string memory _key) view public returns (bool) {\r\n        require(msg.sender == owner, \"This game is controlled by only owner!\");\r\n        if(compareStringsbyBytes(keyMaps[_address], _key)){\r\n            return true;\r\n        }else {\r\n            return false;\r\n        }\r\n    }\r\n\r\n    function postKey(string memory _key) public {\r\n        if(compareStringsbyBytes(keyMaps[msg.sender], ''))\r\n        {\r\n            keyMaps[msg.sender] = _key;\r\n        }else{\r\n            keyMaps[msg.sender] = _key;\r\n        }\r\n    }\r\n\r\n    function checkIfPosted() public view returns (bool){\r\n        if(compareStringsbyBytes(keyMaps[msg.sender], '')){\r\n            return false;\r\n        }else{\r\n            return true;\r\n        }\r\n    }\r\n\r\n    function addFund() public payable {\r\n        balances[msg.sender] += msg.value;\r\n    }\r\n\r\n    function withdraw(uint256 _amount) public {\r\n        uint256 curAmount = balances[msg.sender];\r\n        require(curAmount >= _amount, \"too much amount.\");\r\n        balances[msg.sender] -= _amount;\r\n        payable(msg.sender).transfer(_amount);\r\n    }\r\n\r\n    function createRoom() public {\r\n        require(balances[msg.sender] >= roomprice, \"Can't create this room.\");\r\n        balances[msg.sender] -= roomprice;\r\n        gameLists[msg.sender] = Twice(msg.sender, address(0), false);\r\n        curRoom = msg.sender;\r\n        \r\n    }\r\n\r\n    function joinRoom(address _room) public {\r\n        require(balances[msg.sender] >= roomprice, \"Can't create this room.\");\r\n        balances[msg.sender] -= roomprice;\r\n        require(gameLists[_room].status == false, \"Game is already started!\");\r\n        gameLists[_room].second = msg.sender;\r\n        gameLists[_room].status = true;\r\n        curRoom = address(0);\r\n        playingRoom = _room;\r\n    }\r\n\r\n    function gameOver(address _room , address _winner) public {\r\n        require(msg.sender == owner, \"This game is controlled by only owner!\");\r\n        require(gameLists[_room].status == true, \"Game is not started!\");\r\n        require(gameLists[_room].first == _winner || gameLists[_room].second == _winner, \"winner address is wrong!\");\r\n        balances[_winner] += roomprice * 2 *95 / 100;\r\n        playingRoom = address(0);\r\n    }\r\n\r\n    function claim() public {\r\n        require(msg.sender == owner, \"This function is allowed by only owner!\");\r\n        payable(msg.sender).transfer(address(this).balance);\r\n    }\r\n}\r\n",
  "sourcePath": "D:\\Work\\Blockchain\\Game\\node-server\\src\\blockchain\\contracts\\Hipogame.sol",
  "compiler": {
    "name": "solc",
    "version": "0.8.4+commit.c7e474f2.Emscripten.clang"
  },
  "schemaVersion": "3.4.3",
  "updatedAt": "2022-06-10T13:37:21.595Z",
  "devdoc": {
    "kind": "dev",
    "methods": {},
    "version": 1
  },
  "userdoc": {
    "kind": "user",
    "methods": {},
    "version": 1
  }
}